:020000040800F2
:10000000C008002031020008890B00088B0B000893
:100010008F0B0008930B0008970B000800000000EE
:100020000000000000000000000000009B0B000822
:100030009D0B0008000000009F0B0008A30B0008A8
:100040004B0200084B0200084B0200084B0200085C
:100050004B0200084B0200084B0200084B0200084C
:100060004B0200084B0200084B0200084B0200083C
:100070004B0200084B0200084B0200084B0200082C
:100080004B0200084B0200084B0200084B0200081C
:100090004B0200084B0200084B0200084B0200080C
:1000A0004B0200084B0200084B0200084B020008FC
:1000B0004B0200084B0200084B0200084B020008EC
:1000C0004B0200084B0200084B0200084B020008DC
:1000D0004B0200084B0200084B0200084B020008CC
:1000E0004B0200084B0200084B0200084B020008BC
:1000F0004B0200084B0200084B0200084B020008AC
:100100004B0200084B0200084B0200084B0200089B
:100110004B0200084B0200084B0200084B0200088B
:100120004B0200084B0200084B0200084B0200087B
:100130004B0200084B0200084B0200084B0200086B
:100140004B0200084B0200084B0200084B0200085B
:100150004B0200084B0200084B0200084B0200084B
:100160004B0200084B0200084B0200084B0200083B
:100170004B0200084B0200084B0200084B0200082B
:100180004B0200084B02000800F002F800F040F8B3
:100190000AA090E8000C82448344AAF10107DA45E2
:1001A00001D100F035F8AFF2090EBAE80F0013F0F4
:1001B000010F18BFFB1A43F0010318479C10000001
:1001C000BC100000103A24BF78C878C1FAD8520792
:1001D00024BF30C830C144BF04680C6070470000C1
:1001E0000023002400250026103A28BF78C1FBD840
:1001F000520728BF30C148BF0B6070471FB500F0E1
:10020000D5FF9DE8030000F0B1FE1FBD10B510BD85
:1002100000F036FF1146FFF7F1FF00F023FB00F07E
:1002200068FF03B4FFF7F2FF03BC00F099FF000082
:100230000948804709480047FEE7FEE7FEE7FEE77A
:10024000FEE7FEE7FEE7FEE7FEE7FEE704480549B6
:10025000054A064B70470000890C00088901000818
:10026000C0000020C0080020C0040020C0040020FE
:1002700001464FF40030081AC0F38F2070472DE973
:10028000F04304460E461546DDE907892046FFF790
:10029000EFFFC7B2002243E001209040304000B998
:1002A0003CE0B14830F81700012191400843AE49C5
:1002B00021F81700E0684FEA420C032101FA0CF123
:1002C0008843510008FA01F10843E06020684FEAD2
:1002D000420C032101FA0CF18843510005FA01F1A7
:1002E00008432060012D01D0022D16D16168012044
:1002F000904080B221EA000003FA02F189B208437B
:100300006060A0684FEA420C032101FA0CF18843B7
:10031000510009FA01F10843A06000BF501CC2B2AD
:10032000102AB9DBBDE8F08300B502461046FFF79E
:100330009FFF012101FA00F08C49096808438B49AD
:10034000086000BD2DE9FC4305460C4616461F46D5
:10035000DDE909890CB9BDE8FC832846FFF7E4FF15
:100360003B46324621462846CDE90089FFF787FF04
:1003700000BFF0E72DE9FC4705460E4617469846B4
:10038000DDE90A9A0EB9BDE8FC872846FFF7CCFFE5
:1003900000241AE00120A040304000B914E0E10838
:1003A00005F1200050F821006107CA0E0F2191408D
:1003B00088436107C90E0AFA01F10843E20805F112
:1003C000200141F8220000BF641C102CE2D33B4600
:1003D000022231462846CDE90089FFF750FF00BFD1
:1003E000D1E770B503460C461846FFF741FFC5B28A
:1003F000002214E001209040204070B1186856009F
:100400000321B14008431860574830F81500012116
:1004100091408843544921F81500501CC2B2102A5B
:10042000E8DB70BD30B5024600200BE001238340BD
:100430000B402BB1136845000324AC40A343136069
:10044000431CD8B21028F1DB30BD30B50246002085
:100450000FE0012383400B404BB113684500032498
:10046000AC40A34345000124AC4023431360431C2C
:10047000D8B21028EDDB30BD30B5024600200BE0CD
:10048000012383400B402BB1136845000324AC408B
:1004900023431360431CD8B21028F1DB30BD30B5C4
:1004A0000246002011E0012383400B4003B90AE01B
:1004B000136845000324AC40A34345000224AC402C
:1004C0002343136000BF431CD8B21028EBDB30BDC0
:1004D00070B50346002011E0012484400C4004B9AB
:1004E0000AE0DC6846000325B540AC43450002FA4B
:1004F00005F52C43DC6000BF441CE0B21028EBDBA8
:1005000070BD41F48032C261C161C261C369C36917
:1005100070470146002002E0421C90B249100129B8
:10052000FADC704700B502461046FFF7A1FE012134
:1005300081400E48006888430C49086000BD00B542
:1005400002461046FFF794FE074931F8100000BD3F
:1005500000B502461046FFF78BFE034931F8100044
:10056000C04380B200BD000030000020303802409F
:1005700002460020704770B505460C46206820B141
:10058000214628462268904770BD21462846FFF73D
:10059000EFFFF9E701460020704710B50446606898
:1005A00018B120466168884710BD2046FFF7F2FF6A
:1005B000FAE7016070474160704700000246114849
:1005C000006800F0010080B10E488038006800F03B
:1005D000010050B100BF4FF0604000680028FAD021
:1005E0004FF060431A70104670474FF0FF30FBE742
:1005F00010B5202004494860AFF23F010348FFF7DF
:10060000D8FF10BD800E00E0002004E000000020B4
:1006100010B58B480068401C89490860894800680B
:1006200020B188480068401E86490860AFF300800A
:10063000002438E0844850F8240090B3824850F8F1
:100640002400007B68B3804850F82400806840B3E1
:100650007D4850F824008068401E7B4951F82410E2
:100660008860794850F824008068D0B9764A52F8FA
:1006700024205069744A52F824201169884772482E
:1006800050F824000168704850F8240081606E48DA
:1006900050F82400406820B900216B4850F824002D
:1006A0000173601CC4B26848001F0078A042C1DC1E
:1006B00010BD30B5654800684FF47A72B0FBF2F1B6
:1006C000481EB0F1807F01D301201BE0481E4FF08F
:1006D000E022506150170F22002807DA13071D0E81
:1006E0005B4B00F00F04241F1D5503E013071C0E85
:1006F000584B1C5400BF00204FF0E02290610720AF
:100700001061002008B100BFFEE750480068524960
:10071000B0FBF1F05149086001205149087030BD2B
:100720004F48007800B970474FF0E020006940F072
:1007300002004FF0E021086100BFF4E74FF0E02035
:10074000006920F002004FF0E021086170472DE9B8
:10075000F04705460E4617469846DDF820903A4881
:10076000001F0078052802DB0020BDE8F087182074
:1007700000F024FB04460CB90020F6E72560206851
:10078000A06066602773C4F81080C4F814902E48E7
:10079000001F01780078401C2B4A121F1070101D9A
:1007A00040F821402046E0E72DE9F04106460024CC
:1007B00007E0254850F82400B04200D106E0601C54
:1007C000C4B22148001F0078A042F2DC00BF1E48DE
:1007D000001F0078A04201D1BDE8F0811A4850F80E
:1007E000247000BFEFF31080054672B607E016488C
:1007F000611C50F8211040F82410601CC4B212484B
:10080000001F0078401EA042F1DC0F48001F007856
:10081000401E0D49091F087005B962B6384600F040
:10082000FCFA00BFD8E70021017370470121017372
:100830007047016881607047416070470160704790
:100840000C000020100000204C0000201C000020A4
:1008500018ED00E000E400E0C0C62D001400002008
:1008600018000020B2B020212AA800F039FB48224D
:10087000BA4918A800F002FB5822B849483102A82A
:1008800000F0FCFA00BF00BF00BF00BF00BF00BF08
:1008900000BF00F0F9F9FFF70CFFFFF7A9FEB0A1C8
:1008A000B64800F0E1FA00240FE00320002118AA66
:1008B00002EBC402CDE90010918818AA52F8340066
:1008C00000230122FFF73EFD641C082CEDDB002411
:1008D0000FE00320022102AA02EBC402CDE90010BE
:1008E000918802AA52F8340000231A46FFF72AFD25
:1008F000641C0A2CEDDB032000210B460122CDE90C
:10090000001011029E48FFF71DFD032000210B4639
:100910000122CDE9001051029948FFF713FD032091
:1009200000210B460122CDE9001091029448FFF707
:1009300009FD032000210B460122CDE90010D10260
:100940008F48FFF7FFFC032000210B460122CDE971
:10095000001011038A48FFF7F5FC032000210B4625
:100960000122CDE9001051038548FFF7EBFCE9E0D7
:1009700000250027A84649E0002417E0444501D19E
:10098000012000E0002040B118A800EBC4008088DE
:1009900018A951F83410088307E018A800EBC40028
:1009A000808818A951F834104883641C082CE5DBB2
:1009B000002627E002A850F83600006902A901EBE2
:1009C000C6018988084008B1012000E00020012804
:1009D00008D12AA8415D0120B8400143C8B22AA924
:1009E000485506E02AA8405D0121B94088432AA95C
:1009F00048557F1C042F01D100276D1C012000F0F9
:100A0000A2F8761C082ED5DB08F10108B8F1080F12
:100A1000B2DB002416E00CB9012000E0002040B158
:100A200018A800EBC400808818A951F83410088376
:100A300007E018A800EBC400808818A951F834100A
:100A40004883641C082CE6DB14980069BDF8541038
:100A5000084008B1012000E0002001280BD19DF8DA
:100A6000A90040F008008DF8A9009DF8B50040F0FD
:100A700001008DF8B500002462E04FF48070404919
:100A80001A3108800CB9012000E0002028B14FF491
:100A900000703B491831088004E04FF40070384979
:100AA0001A3108802AA8005D00F0010080F00100E2
:100AB00028B14FF4806032491831088004E04FF4C7
:100AC00080602F491A3108802AA8005D012121EA9F
:100AD000500020B1C8022A491831088004E04FF4C0
:100AE000006027491A3108802AA8005D012121EA07
:100AF000900020B1080322491831088004E04FF427
:100B000080501F491A3108802AA8005D012121EA7E
:100B1000D00020B148031A491831088004E04FF48E
:100B2000005017491A310880202000F00CF84FF4CB
:100B30008070134918310880202000F004F8641CEC
:100B4000202C9ADB14E70F4A126800FB02F100BF69
:100B50000A1EA1F10101FBD170470000B811000885
:100B6000444D3634504943206669726D7761726531
:100B70002072756E6E696E672E0A000000000020FC
:100B80000018024014000020704700BFFEE700BFBD
:100B9000FEE700BFFEE700BFFEE770477047704703
:100BA000704710B5FFF734FD10BD00000CB50020F4
:100BB000019000907648006840F4803074490860E5
:100BC00000BF7348006800F4003000900198401C9A
:100BD0000190009818B90198B0F5A04FF1D16C4878
:100BE000006800F4003010B10120009001E0002006
:100BF00000900098012846D165484030006840F0D8
:100C000080506349403108606248006840F44040C9
:100C1000604908605E48083000685D490831086036
:100C20000846006840F4004008600846006840F448
:100C3000A05008605848091F0860081F006840F06D
:100C40008070091F086000BF5148006800F0007004
:100C50000028F9D040F20570504908604C4808302F
:100C6000006820F003004A4908310860084600681F
:100C700040F00200086000BF45480830006800F0FE
:100C80000C000828F8D10CBD10B54548006840F4A8
:100C90007000434908603E48006840F001003C494C
:100CA000086000203A4908310860394800683D4929
:100CB0000840374908603C48091D0860081F006863
:100CC00020F48020091F0860002031490C310860A1
:100CD000FFF76CFF4FF0006031498039086010BDAC
:100CE00070B500200022022300240221284D08357F
:100CF0002D6805F00C0020B1042806D0082834D156
:100D000007E02A4D2A4E356033E02A4D284E3560E3
:100D10002FE01F4D2D1D2D68C5F380541C4D2D1D3A
:100D20002D6805F03F0154B1224DB5FBF1F5184E89
:100D3000361D3668C6F3881605FB06F209E01B4D22
:100D4000B5FBF1F5124E361D3668C6F3881605FB65
:100D500006F20F4D2D1D2D68C5F301456D1C6B006E
:100D6000B2FBF3F5124E356003E0104D104E3560C6
:100D700000BF00BF064D08352D68C5F303150E4EA4
:100D8000705D0B4D2D68C540094E356070BD00008B
:100D9000003802400070004008544007003C024008
:100DA00088ED00E0FFFFF6FE103000240024F40080
:100DB0001C00002000127A002000002070B50646BA
:100DC00000F0B8F8056806F10B0020F00704B44203
:100DD0009CBF002070BD2B466A68BAB11068A04263
:100DE00010D304F1080188423CBF5068586007D313
:100DF0005168101941601168091B01605860146046
:100E0000101D70BD13465268002AE7D121462846BE
:100E100000F098F80028DED170BD70B50446051FBB
:100E200000F088F80068002C14BF446870BD002CE6
:100E300018BFAC423CBF20466468F8D301680A186A
:100E4000AA4218BF456003D12A68054611440160D3
:100E500028684119A1421CBF6C6070BD616869605F
:100E600021680844286070BD0FB4014610B504AA7B
:100E7000039800F0B1F810BC5DF814FB10B5203AEF
:100E8000C0F00B80B1E81850203AA0E81850B1E843
:100E90001850A0E81850BFF4F5AF5FEA027C24BFF9
:100EA000B1E81850A0E8185044BF18C918C0BDE8F0
:100EB00010405FEA827C24BF51F8043B40F8043BB9
:100EC00008BF7047D20728BF31F8023B48BF11F86E
:100ED000012B28BF20F8023B48BF00F8012B7047C8
:100EE0004FF0000200B5134694469646203922BFC3
:100EF000A0E80C50A0E80C50B1F12001BFF4F7AF0E
:100F0000090728BFA0E80C5048BF0CC05DF804EBEF
:100F1000890028BF40F8042B08BF704748BF20F85D
:100F2000022B11F0804F18BF00F8012B704770475B
:100F3000704770470048704768000020704770474E
:100F40007047704738B504460A4600206946AFF33B
:100F50000080002808BF38BD02460099204600F0F6
:100F600051F8012038BD012000F082B8F8B5AFF388
:100F70000080054600200C46102000BF0646A81938
:100F8000A0420DD9324669460020AFF30080070029
:100F900008BF00F06DF80098A04218BF0546C419BC
:100FA000FFF7C8FF05600746F01D20F0070046194F
:100FB000284600F00AF8B44208BFF8BDA21B31462B
:100FC0003868BDE8F84000F01DB800210160C0E9B4
:100FD0000110704710207047074B70B50D467B44D9
:100FE00000F02FF80446284600F03EF810B14FF00C
:100FF000FF3070BD204670BD95F5FFFF004870477B
:1010000060000020034640688C46002818BF8842D4
:101010003CBF03464068F8D318681844884207D09C
:101020000CF1030020F00700001D411A521A01467E
:10103000081D0A60FFF7F1BE01694A1C02610878C9
:10104000704700B58FB0CDE9013100210591054908
:101050007944CDE903101146684600F036F80FB028
:1010600000BD0000E5FFFFFF007B00F0800070473F
:1010700010B500F04DF8BDE8104000F043B87047DF
:101080007546FFF7BBFFAE4605006946534620F0A4
:101090000700854618B020B5FFF7D8F8BDE8204016
:1010A0004FF000064FF000074FF000084FF0000B24
:1010B00021F00701AC46ACE8C009ACE8C009ACE8D7
:1010C000C009ACE8C0098D4670472DE9F0410646DD
:1010D0000024D6E90170F5688046304603E04146B9
:1010E000B847641C3046A8470028F8D12046BDE820
:1010F000F08110B50446AFF300802046BDE81040F3
:10110000FFF78FB8002801D000F02AB87047000020
:1011100010B5012805D0002103A000F027F8012018
:1011200010BD09A1F8E7000053494752544D454D01
:101130003A204F7574206F662068656170206D6578
:101140006D6F7279000000003A2048656170206D73
:10115000656D6F727920636F72727570746564006B
:1011600001491820ABBEFEE72600020070B5054617
:101170000C460A2000E06D1C00F011F835B128780B
:101180000028F8D102E0641C00F009F814B12078BE
:101190000028F8D1BDE870400A20AFF3008008B500
:1011A00069468DF800000320ABBE08BD4FF04070CB
:1011B000E1EE100A7047000000100240000200003B
:1011C000001002400004000000100240000800006F
:1011D000001002400010000000100240002000003B
:1011E000001002400040000000100240008000009B
:1011F0000008024001000000000802400200000058
:101200000010024001000000001002400200000037
:10121000001002400400000000100240080000001E
:1012200000100240100000000010024020000000EA
:10123000001002404000000000100240800000004A
:1012400000100240000100000008024004000000FD
:10125000000802400800000078120008000000208A
:1012600030000000C4010008A8120008300000206F
:1012700090080000E00100080000000000000000ED
:10128000000000000000000000000000000000005E
:1012900000000000007A030A0000000000000000C7
:0812A00001020304060708091E
:040000050800018965
:00000001FF
