:020000040800F2
:10000000C008002039020008010D0008030D000897
:10001000050D0008070D0008090D0008000000008C
:100020000000000000000000000000000B0D0008B0
:100030000D0D0008000000000F0D0008130D000852
:10004000530200085302000853020008530200083C
:10005000530200085302000853020008530200082C
:10006000530200085302000853020008530200081C
:10007000530200085302000853020008530200080C
:1000800053020008530200085302000853020008FC
:1000900053020008530200085302000853020008EC
:1000A00053020008530200085302000853020008DC
:1000B00053020008530200085302000853020008CC
:1000C00053020008530200085302000853020008BC
:1000D00053020008530200085302000853020008AC
:1000E000530200085302000853020008530200089C
:1000F000530200085302000853020008530200088C
:10010000530200085302000853020008530200087B
:10011000530200085302000853020008530200086B
:10012000530200085302000853020008530200085B
:10013000530200085302000853020008530200084B
:10014000530200085302000853020008530200083B
:10015000530200085302000853020008530200082B
:10016000530200085302000853020008530200081B
:10017000530200085302000853020008530200080B
:10018000530200085302000800F002F800F045F89E
:100190000AA090E8000C82448344AAF10107DA45E2
:1001A00001D100F03AF8AFF2090EBAE80F0013F0EF
:1001B000010F18BFFB1A43F001031847D4130000C6
:1001C000F4130000103A24BF78C878C1FAD8520757
:1001D00024BF30C830C144BF04680C6070470000C1
:1001E0000023002400250026103A28BF78C1FBD840
:1001F000520728BF30C148BF0B607047692900F023
:10020000DF86002070471FB501F0F4F89DE8030079
:1002100000F08AFF1FBD10B510BD01F069F811464E
:10022000FFF7F1FF00F072FA01F087F803B4FFF76F
:10023000F2FF03BC01F0B8F80948804709480047BD
:10024000FEE7FEE7FEE7FEE7FEE7FEE7FEE7FEE786
:10025000FEE7FEE704480549054A064B70470000E3
:10026000BF0D000889010008C0000020C008002060
:10027000C0040020C0040020A3490844C0F38F201C
:1002800070472DE9F04F9A46DDE909B889460346E3
:10029000FFF7F2FFC5B200204FF0030E01218140AD
:1002A00011EA090F28D0994E36F815400C4326F86C
:1002B0001540DF6844000EFA04F6B7430BFA04FC5D
:1002C00047EA0C07DF601F6802FA04FCB74347EAFD
:1002D0000C071F60012A01D0022A0DD15F6889B284
:1002E0008F430AFA00F189B20F435F60996808FAF8
:1002F00004F4B14321439960401CC0B21028CDD30F
:10030000BDE8F08F00B5FFF7B7FF012181408048BD
:1003100002681143016000BDFCB51646DDE907C562
:100320000C00074608D0FFF7EDFFCDE900C53246C7
:1003300021463846FFF7A5FFFCBD2DE9FC4F994645
:10034000DDE90BB792460D00064622D0FFF7DAFF33
:10035000002201214FF00F0C01FA02F028420DD0CB
:10036000D00806EB8003186A5407E40E0CFA04F870
:1003700020EA080007FA04F420431862521C102AED
:10038000EAD3CDE9009B5346022229463046FFF7C7
:1003900078FFBDE8FC8FF0B50E460546FFF76CFF11
:1003A00000225A49C4B24FF0010C03270CFA02F3A1
:1003B00033420CD028684FEA420E07FA0EFE40EA9C
:1003C0000E00286031F81400984321F81400521CE4
:1003D000D2B2102AEAD3F0BDF0B5002201250326DF
:1003E00005FA02F30B4205D00468570006FA07F33A
:1003F0009C430460521CD2B2102AF1D3F0BDF0B578
:1004000000220127032607FA02F33C460B4208D0DC
:100410000568530006FA03FC25EA0C059C402543B9
:100420000560521CD2B2102AEDD3F0BDF0B5002207
:100430000125032605FA02F30B4205D00468570094
:1004400006FA07F31C430460521CD2B2102AF1D3FF
:10045000F0BDF0B5002201260324022706FA02F3BC
:100460000B4209D00568530004FA03FC25EA0C0589
:1004700007FA03F31D430560521CD2B2102AEDD3D4
:10048000F0BDF0B500230127032507FA03F40C4261
:1004900009D0C6685C0005FA04FC26EA0C0602FADC
:1004A00004F42643C6605B1CDBB2102BEDD3F0BD19
:1004B00041F48032C261C161C261C169C0697047E3
:1004C000002102E0491C89B240080128FAD80846F8
:1004D000704700B5FFF7D0FE012181400C4802684B
:1004E0008A43026000BD00B5FFF7C6FE074931F838
:1004F000100000BD00B5FFF7BFFE044931F8100041
:10050000C04380B200BD00000000FEBF2C000020F0
:10051000303802400020704710B50A6812B1BDE8BB
:1005200010401047FFF7F6FF10BD0020704710B5D0
:10053000416811B1BDE810400847FFF7F6FF10BD54
:1005400001607047416070470D490968C9070BD0C9
:100550000B4980390968C90706D04FF060410A6825
:10056000002AFCD0087070474FF0FF3070470549F3
:1005700020204860AFF22F010348FFF7E1BF0000E1
:10058000800E00E0002004E00000002070B55A4812
:100590004168491C4160816811B18168491E8160D0
:1005A000AFF300800024554E18E006EB8405686820
:1005B00090B1017B81B1826872B1521E826069681C
:1005C0000AD1486909698847686801688160686874
:1005D000416809B900210173641CE4B23078A0427B
:1005E000E3D870BD464801684FF47A70B1FBF0F073
:1005F000401EB0F1807F12D24FF0E0225061414B9B
:10060000F02083F8140D00209061072010613E480F
:10061000B1FBF0F13848C160012101707047FEE77D
:1006200035480078002805D04FF0E020016941F0FE
:100630000201016170474FF0E020016921F00201E1
:10064000016170472DE9F0472C4C0546DDF82090FC
:1006500020781E4617468846052802D30020BDE8AC
:10066000F087182000F018FC0028F8D00560C0E9D9
:1006700001850773C0E90469217804EB81014860B2
:100680002178491C2170EAE71C4B30B400211A780C
:1006900006E003EB81046468844203D0491CC9B2BC
:1006A0008A42F6D88A4218D003EB81004068EFF303
:1006B000108472B605E003EB8102491C9568C9B24B
:1006C00055601A78521E8A42F5DC1978491E197055
:1006D00004B962B630BC00F00EBC30BC70470021DB
:1006E0000173704701210173704701688160704791
:1006F00041607047016070470800002044000020FE
:10070000180000200FE000E0C0C62D00F0B020214E
:100710002CA800F0C3FC4822FE4934A800F08CFC51
:10072000FC495822483102A800F086FCF94C4022CE
:10073000103CD4E90001CDE9680104F1B00146A8FC
:1007400000F07AFC402204F1F00156A800F074FC9D
:10075000D4E902018A466E90502204F5987118A8D7
:1007600000F06AFC04F5C0700FC8CDE966020020F5
:100770006A916D90CDE96B30814600F020FBFFF768
:1007800031FFFFF7F4FEE4A1EA4800F0DBFB0024B0
:100790002646032534AFCDE9006507EBC40157F8C1
:1007A0003400898800230122FFF7B6FD641C092C60
:1007B000F1DB00240227CDE9007502A800EBC4019B
:1007C0000023898850F834001A46FFF7A5FD641C01
:1007D0000B2CF0DB00240020CDE9000546A800EB3F
:1007E000C40150F83400898800230122FFF794FDEA
:1007F000641C082CEFDB0024BB46CDE900B556A8ED
:1008000000EBC4010023898850F834001A46FFF732
:1008100083FD641C082CF0DB0126CDE90065002374
:10082000BDF84C101A461298FFF776FDCDE9006529
:100830006998002381B21A466898FFF76DFD1FFA88
:100840008AF16F91CDE9006500231A466E98FFF793
:1008500063FD0024CDE9006518A800EBC401002366
:10086000B246898850F834001A46FFF755FD641CDB
:100870000A2CEFDB002401946A98009481B26A91FB
:10088000234601226698FFF747FD6B98009481B2DA
:1008900001946B91002301226798FFF73DFDA64E5E
:1008A0000122002311023046CDE90045FFF734FD57
:1008B0000122002351023046CDE90045FFF72CFD0F
:1008C0000122002391023046CDE90045FFF724FDC7
:1008D00001220023D1023046CDE90045FFF71CFD7F
:1008E0000122002311033046CDE90045FFF714FD36
:1008F0000122002351033046CDE90045FFF70CFDEE
:10090000CDE900B500235C461A464FF480413046DD
:10091000FFF702FD00231A464FF400413046CDE9AF
:100920000045FFF7F9FC0024254627460DF1D00BC2
:10093000002046AA0BEBC0035BF830109B88B8423E
:1009400001D10B8300E04B83082809DA02EBC001D8
:1009500052F830308988B84201D1198300E05983B8
:10096000401C0928E6DB002602A850F83610096969
:1009700000EBC6008088014209D02CA80AFA05F1D4
:10098000025D33460A4302553A466CA135E0082F12
:1009900039DA56A850F83610096900EBC60080888D
:1009A000014230D0B9F1000F1ED14FF001096FA103
:1009B000604800F0C7FA00200DF1600E421D0EEBFA
:1009C000C0010EEBC20291F806C0CB7992F8068006
:1009D00081F8068092F8078081F8078082F806C0C7
:1009E000401CD3710528E9DB2CA80AFA05F1025D49
:1009F00033460A4302553A466BA14E48CDE90045BD
:100A000000F0A0FA05E02CA80AFA05F1025D8A437D
:100A100002556D1C042D01D10025641C012000F03D
:100A200050F9761C082E9FDB7F1C092F80DB0020ED
:100A3000BDF8D420594616E1002869D001EBC00367
:100A400051F830409B886383401C0828F4DB1498DD
:100A50000069BDF8541008420BD09DF8B10040F079
:100A600008008DF8B1009DF8BD0040F001008DF840
:100A7000BD00012000F025F916980069BDF85C1052
:100A800008420BD09DF8B00040F004008DF8B00093
:100A90009DF8BD0040F001008DF8BD00012000F080
:100AA00010F968980069699989B2084204D06E9873
:100AB00000696F99084204D19DF8C30040F0080016
:100AC00003E09DF8C30020F008008DF8C30001206A
:100AD00000F0F7F812980069BDF84C1008429DF834
:100AE000C30002D140F0040001E020F004008DF8C2
:100AF000C300012000F0E5F8002418AF56462CADE5
:100B000057F83410096907EBC4008288114263E08A
:100B1000A9E0000010140008444D36345049432029
:100B20006669726D776172652072756E6E696E6747
:100B30002E0A000000000020001802404336352035
:100B40004B65793A20636F6C3D25692C20726F7775
:100B50003D25692C206E6962626C653D25692C20FB
:100B60006269743D25692E0A000000004336342076
:100B70006D6F64652064657465637465642E2053CD
:100B800077617070696E67206A6F79737469636BDF
:100B900020706F727473206261636B20746F206EBB
:100BA0006F726D616C2E0A00433634204B65793AC2
:100BB00020636F6C3D25692C20726F773D25692C71
:100BC000206E6962626C653D25692C206269743D06
:100BD00025692E0A000000000DD18379C079E95CF7
:100BE00006FA00F21143E9540090224638A1414828
:100BF00000F0A8F906E08179C0796A5C06FA00F095
:100C000082436A54012000F05CF8641C0A2CFFF651
:100C100077AF6D98669900286A9827D048836C98BA
:100C2000679900286B9823D04883012000F049F889
:100C3000314E00244FF4805B4FF400584FF480771E
:100C40002D49891C0F804FF400709CB10880285DED
:100C5000C2074FF480620FD00A8082074FF400620F
:100C60000CD432800BE0349B1A83EDE60883D6E780
:100C70000883DAE73080EAE73280EEE70A8042074D
:100C80005A4601D4328000E00A800007404601D471
:100C9000308000E00880012000F013F83780012048
:100CA00000F00FF84CB9144808380168C1F38031DE
:100CB0006D910068C0F3C0306C90641C202CBFDBC9
:100CC00031E60E4909684843401EFDD270470000D6
:100CD0004A6F79737469636B3A20693D25692C20EA
:100CE0006E6962626C653D25692C206269743D25E0
:100CF000692E0A000000002018180240140000208D
:100D00007047FEE7FEE7FEE7FEE770477047704773
:100D1000704710B5FFF73AFC10BD00000CB500227B
:100D2000544900920192086840F4803008604FF402
:100D3000A043086800F4003001900098401C009027
:100D4000019810B900989842F3D10868800334D50F
:100D50000120019047484030026842F08052026012
:100D60004548026842F44042026042480830026846
:100D70000260026842F400420260026842F4A0523B
:100D80000260031F3D4A1A600A6842F080720A60DE
:100D90000A689201FCD53A4940F205720A6001687E
:100DA00021F003010160016841F002010160016866
:100DB000C1F381010229FAD10CBD01920CBD314869
:100DC00010B5016841F4700101602A48016841F0E2
:100DD00001010160274A00210832116002682A4B94
:100DE0001A400260031D294A1A60026822F4802218
:100DF000026020480C300160FFF790FF21494FF05E
:100E000000608039086010BD70B51A4D083528683B
:100E10001F4B204910F00C0004D05E10042803D0B2
:100E2000082803D00B601BE00E6019E0114A121D68
:100E30001068C0F38054106800F03F0014B1B6FB96
:100E4000F0F001E0B3FBF0F013681268C3F388130D
:100E50005843C2F30142521C5200B0FBF2F008604A
:100E600028680C4AC0F30310121D105C0A68C240C7
:100E70000A6070BD0038024000700040085440070E
:100E8000003C024088ED00E0FFFFF6FE1030002439
:100E90000024F4001800002070B5064600F028F980
:100EA000056806F10B0020F00704B4429CBF002047
:100EB00070BD2B466A68BAB11068A04210D304F125
:100EC000080188423CBF5068586007D35168101928
:100ED00041601168091B016058601460101D70BDED
:100EE00013465268002AE7D12146284600F008F947
:100EF0000028DED170BD70B50446051F00F0F8F87B
:100F00000068002C14BF446870BD002C18BFAC42B0
:100F10003CBF20466468F8D301680A18AA4218BF8B
:100F2000456003D12A6805461144016028684119CB
:100F3000A1421CBF6C6070BD616869602168084493
:100F4000286070BD0FB4014610B504AA039800F0E4
:100F50007BF910BC5DF814FB2DE9F0410E46044608
:100F6000002020622046E168884730B3252805D05C
:100F7000D4E901219047206A401CF2E7E16820464D
:100F800000278847050018D0A5F14100192802D88C
:100F900020354FF400673246294620462760FFF788
:100FA0002DF940B1012804D0F61D26F007060836B9
:100FB000D8E7361DD6E72846DAE7206ABDE8F08193
:100FC0002DE9F0410646002410687529314616A522
:100FD00010D0AFF30080002802DA404213A507E0EA
:100FE00031688A0701D512A502E0490704D511A589
:100FF000012401E0AFF3008000210A2206F124075A
:1010000009E0B0FBF2FCB0FBF2F302FB1C00303055
:1010100078541846491C0028F3D123462A46304606
:10102000BDE8F04100F0B6B8000000002D0000005F
:101030002B0000002000000010B5203AC0F00B800B
:10104000B1E81850203AA0E81850B1E81850A0E8CC
:101050001850BFF4F5AF5FEA027C24BFB1E8185026
:10106000A0E8185044BF18C918C0BDE810405FEA96
:10107000827C24BF51F8043B40F8043B08BF704712
:10108000D20728BF31F8023B48BF11F8012B28BF17
:1010900020F8023B48BF00F8012B70474FF00002D8
:1010A00000B5134694469646203922BFA0E80C505E
:1010B000A0E80C50B1F12001BFF4F7AF090728BF39
:1010C000A0E80C5048BF0CC05DF804EB890028BFB5
:1010D00040F8042B08BF704748BF20F8022B11F0DE
:1010E000804F18BF00F8012B70477047704770475A
:1010F0000048704764000020704770477047704791
:1011000038B504460A4600206946AFF3008000283F
:1011100008BF38BD02460099204600F0ABF8012018
:1011200038BD012000F0DCB8F8B5AFF3008005460B
:1011300000200C46102000BF0646A819A0420DD979
:10114000324669460020AFF30080070008BF00F078
:10115000C7F80098A04218BF0546C419FFF7C8FF9A
:1011600005600746F01D20F007004619284600F0EC
:101170000AF8B44208BFF8BDA21B31463868BDE882
:10118000F84000F077B800210160C0E90110704715
:10119000102070472DE9F0470D46994692460446C7
:1011A00000F124080168880604D5E06921F01001E7
:1011B000216000E00120A84201DD471B00E000277C
:1011C000A1697A1902EB0900081AA0612078C0060B
:1011D00002D42046AFF30080002608E0D4E90121C4
:1011E0001AF806009047206A401C761C20624E4583
:1011F000F4DB2078C0060AD52046AFF3008006E075
:10120000D4E9012130209047206A401C2062381E1A
:10121000A7F10107F4DC07E0D4E9012118F8050083
:101220009047206A401C2062281EA5F10105F3DCCE
:101230002046AFF300802078000602D50220BDE8EA
:10124000F0870120FBE70000074B70B50D467B449B
:1012500000F02FF80446284600F03EF810B14FF099
:10126000FF3070BD204670BDC7F2FFFF00487047D9
:101270005C000020034640688C46002818BF884266
:101280003CBF03464068F8D318681844884207D02A
:101290000CF1030020F00700001D411A521A01460C
:1012A000081D0A60FFF727BE01694A1C0261087821
:1012B000704700B58FB0CDE9013100210591054996
:1012C0007944CDE9031011466846FFF745FE0FB09B
:1012D00000BD0000E5FFFFFF007B00F080007047CD
:1012E00010B500F039F8BDE8104000F02FB8704795
:1012F0007546FFF7BBFFAE4605006946534620F032
:101300000700854618B020B5FEF7A4FFBDE82040D1
:101310004FF000064FF000074FF000084FF0000BB1
:1013200021F00701AC46ACE8C009ACE8C009ACE864
:10133000C009ACE8C0098D46704710B50446AFF34C
:1013400000802046BDE81040FEF770BF002801D0A5
:1013500000F02AB87047000010B5012805D0002120
:1013600003A000F027F8012010BD09A1F8E7000054
:1013700053494752544D454D3A204F7574206F667E
:101380002068656170206D656D6F727900000000E6
:101390003A2048656170206D656D6F727920636FCA
:1013A000727275707465640001491820ABBEFEE767
:1013B0002600020070B505460C460A2000E06D1CB0
:1013C00000F011F835B128780028F8D102E0641C4B
:1013D00000F009F814B120780028F8D1BDE8704079
:1013E0000A20AFF3008008B569468DF8000003209D
:1013F000ABBE08BD4FF04070E1EE100A7047000030
:101400000008024000800000000802400040000088
:101410000010024000020000001002400004000022
:101420000010024000080000001002400010000000
:1014300000100240002000000010024000400000A8
:10144000001002400080000000080240010000007F
:1014500000080240020000000010024001000000ED
:1014600000100240020000000010024004000000D2
:1014700000100240080000000010024010000000B0
:101480000010024020000000001002404000000058
:101490000010024080000000001002400001000027
:1014A000000802400400000000080240080000009C
:1014B000000C024000010000000C0240000200008D
:1014C000000C024000040000000C02400008000074
:1014D000000C024000100000000C02400020000040
:1014E000000C024000400000000C024000800000A0
:1014F000000C024001000000000C0240020000004D
:10150000000C024004000000000C02400800000033
:10151000000C024010000000000C024020000000FF
:10152000000C024040000000000C0240800000005F
:10153000000802404000140200080240800014032A
:1015400000080240100014000008024020001401AE
:1015500000080240001015000008024000041202BA
:1015600000080240000812030008024000021200B6
:101570000008024000011201000802400020130090
:10158000000402402000000000040240100000009F
:10159000B0150008000000202C000000C401000865
:1015A000DC1500082C00002094080000E001000871
:1015B000000000000000000000000000000000002B
:1015C0000000000000000000007A030A0000000094
:0C15D000000000000102030406070809E7
:040000050800018965
:00000001FF
