:020000040800F2
:10000000C008002039020008A10D0008A30D000857
:10001000A70D0008AB0D0008AF0D000800000000A0
:10002000000000000000000000000000B30D000808
:10003000B50D000800000000B70D0008BB0D00085A
:10004000530200085302000853020008530200083C
:10005000530200085302000853020008530200082C
:10006000530200085302000853020008530200081C
:10007000530200085302000853020008530200080C
:1000800053020008530200085302000853020008FC
:1000900053020008530200085302000853020008EC
:1000A00053020008530200085302000853020008DC
:1000B00053020008530200085302000853020008CC
:1000C00053020008530200085302000853020008BC
:1000D00053020008530200085302000853020008AC
:1000E000530200085302000853020008530200089C
:1000F000530200085302000853020008530200088C
:10010000530200085302000853020008530200087B
:10011000530200085302000853020008530200086B
:10012000530200085302000853020008530200085B
:10013000530200085302000853020008530200084B
:10014000530200085302000853020008530200083B
:10015000530200085302000853020008530200082B
:10016000530200085302000853020008530200081B
:10017000530200085302000853020008530200080B
:10018000530200085302000800F002F800F045F89E
:100190000AA090E8000C82448344AAF10107DA45E2
:1001A00001D100F03AF8AFF2090EBAE80F0013F0EF
:1001B000010F18BFFB1A43F0010318477814000021
:1001C00098140000103A24BF78C878C1FAD85207B2
:1001D00024BF30C830C144BF04680C6070470000C1
:1001E0000023002400250026103A28BF78C1FBD840
:1001F000520728BF30C148BF0B607047692900F023
:100200007D87002070471FB501F092F99DE803003B
:1002100001F028F81FBD10B510BD01F007F9114617
:10022000FFF7F1FF00F022FB01F025F903B4FFF71F
:10023000F2FF03BC01F056F909488047094800471E
:10024000FEE7FEE7FEE7FEE7FEE7FEE7FEE7FEE786
:10025000FEE7FEE704480549054A064B70470000E3
:10026000A10E000889010008C0000020C00800207D
:10027000C0040020C004002001464FF40030081ADA
:10028000C0F38F2070472DE9F04304460E46154613
:10029000DDE907892046FFF7EFFFC7B2002243E000
:1002A00001209040304000B93CE0B14830F81700E0
:1002B000012191400843AE4921F81700E0684FEA58
:1002C000420C032101FA0CF18843510008FA01F1B4
:1002D0000843E06020684FEA420C032101FA0CF168
:1002E0008843510005FA01F108432060012D01D037
:1002F000022D16D161680120904080B221EA0000F1
:1003000003FA02F189B208436060A0684FEA420C28
:10031000032101FA0CF18843510009FA01F1084365
:10032000A06000BF501CC2B2102AB9DBBDE8F08348
:1003300000B502461046FFF79FFF012101FA00F0C9
:100340008C49096808438B49086000BD2DE9FC43CE
:1003500005460C4616461F46DDE909890CB9BDE87D
:10036000FC832846FFF7E4FF3B46324621462846F9
:10037000CDE90089FFF787FF00BFF0E72DE9FC47D3
:1003800005460E4617469846DDE90A9A0EB9BDE8BD
:10039000FC872846FFF7CCFF00241AE00120A0408C
:1003A000304000B914E0E10805F1200050F82100C8
:1003B0006107CA0E0F21914088436107C90E0AFAEE
:1003C00001F10843E20805F1200141F8220000BFD5
:1003D000641C102CE2D33B46022231462846CDE96C
:1003E0000089FFF750FF00BFD1E770B503460C4608
:1003F0001846FFF741FFC5B2002214E001209040EB
:10040000204070B1186856000321B14008431860BD
:10041000574830F81500012191408843544921F88C
:100420001500501CC2B2102AE8DB70BD30B5024680
:1004300000200BE0012383400B402BB113684500E3
:100440000324AC40A3431360431CD8B21028F1DB53
:1004500030BD30B5024600200FE0012383400B4041
:100460004BB1136845000324AC40A343450001246D
:10047000AC4023431360431CD8B21028EDDB30BDE1
:1004800030B5024600200BE0012383400B402BB126
:10049000136845000324AC4023431360431CD8B2C7
:1004A0001028F1DB30BD30B50246002011E00123F9
:1004B00083400B4003B90AE0136845000324AC40B5
:1004C000A34345000224AC402343136000BF431CF8
:1004D000D8B21028EBDB30BD70B50346002011E028
:1004E000012484400C4004B90AE0DC68460003257E
:1004F000B540AC43450002FA05F52C43DC6000BF73
:10050000441CE0B21028EBDB70BD41F48032C261C4
:10051000C161C261C369C36970470146002002E03E
:10052000421C90B249100129FADC704700B502461E
:100530001046FFF7A1FE012181400E480068884364
:100540000C49086000BD00B502461046FFF794FE56
:10055000074931F8100000BD00B502461046FFF70C
:100560008BFE034931F81000C04380B200BD00008B
:10057000300000203038024002460020704770B53D
:1005800005460C46206820B121462846226890473F
:1005900070BD21462846FFF7EFFFF9E7014600202E
:1005A000704710B50446606818B1204661688847F6
:1005B00010BD2046FFF7F2FFFAE701607047416087
:1005C0007047000002461148006800F0010080B149
:1005D0000E488038006800F0010050B100BF4FF0B5
:1005E000604000680028FAD04FF060431A7010464F
:1005F00070474FF0FF30FBE710B5202004494860FA
:10060000AFF23F010348FFF7D8FF10BD800E00E0B6
:10061000002004E00000002010B58B480068401C5A
:10062000894908608948006820B188480068401EF0
:1006300086490860AFF30080002438E0844850F811
:10064000240090B3824850F82400007B68B38048AF
:1006500050F82400806840B37D4850F8240080683A
:10066000401E7B4951F824108860794850F82400D6
:100670008068D0B9764A52F824205069744A52F8FA
:10068000242011698847724850F824000168704896
:1006900050F8240081606E4850F82400406820B96A
:1006A00000216B4850F824000173601CC4B26848F4
:1006B000001F0078A042C1DC10BD30B5654800685D
:1006C0004FF47A72B0FBF2F1481EB0F1807F01D393
:1006D00001201BE0481E4FF0E022506150170F220E
:1006E000002807DA13071D0E5B4B00F00F04241FD0
:1006F0001D5503E013071C0E584B1C5400BF00206F
:100700004FF0E022906107201061002008B100BF87
:10071000FEE7504800685249B0FBF1F051490860CB
:1007200001205149087030BD4F48007800B970472A
:100730004FF0E020006940F002004FF0E021086136
:1007400000BFF4E74FF0E020006920F002004FF016
:10075000E021086170472DE9F04705460E4617462F
:100760009846DDF820903A48001F0078052802DB03
:100770000020BDE8F087182000F02CFC04460CB9DE
:100780000020F6E725602068A06066602773C4F843
:100790001080C4F814902E48001F01780078401C87
:1007A0002B4A121F1070101D40F821402046E0E730
:1007B0002DE9F0410646002407E0254850F82400C2
:1007C000B04200D106E0601CC4B22148001F00788E
:1007D000A042F2DC00BF1E48001F0078A04201D1F9
:1007E000BDE8F0811A4850F8247000BFEFF3108084
:1007F000054672B607E01648611C50F8211040F813
:100800002410601CC4B21248001F0078401EA04291
:10081000F1DC0F48001F0078401E0D49091F0870C9
:1008200005B962B6384600F004FC00BFD8E70021E5
:10083000017370470121017370470168816070473F
:1008400041607047016070470C00002010000020DC
:100850004C0000201C00002018ED00E000E400E047
:10086000C0C62D001400002018000020C8B02021B0
:1008700040A800F0B1FC00BF4822F7492EA800F0C4
:1008800079FC00BF5822F449483118A800F072FCE6
:10089000F149A03103C9CDE9160100BF5022EE494C
:1008A000A83102A800F066FC00BF00BF00BF00BF77
:1008B00000BF00BF00BF00BF00BF00BF00BF00BF40
:1008C00000BF00BF00F0ECFAFFF7F7FEFFF794FE61
:1008D000E2A1E94800F0D4FB00240FE0032000214E
:1008E0002EAA02EBC402CDE9001091882EAA52F87C
:1008F000340000230122FFF729FD641C092CEDDBE5
:1009000000240FE00320022118AA02EBC402CDE963
:100910000010918818AA52F8340000231A46FFF7F5
:1009200015FD641C0B2CEDDB03200121CDE900102B
:10093000BDF8A41000231A462898FFF707FD0320EE
:100940000121CDE90010BDF85C1000231A4616986D
:10095000FFF7FCFC00240FE00320012102AA02EBB8
:10096000C402CDE90010918802AA52F83400002395
:100970001A46FFF7EBFC641C0A2CEDDB0320002178
:100980000B460122CDE900101102BC48FFF7DEFC46
:10099000032000210B460122CDE900105102B74887
:1009A000FFF7D4FC032000210B460122CDE9001003
:1009B0009102B248FFF7CAFC032000210B46012236
:1009C000CDE90010D102AD48FFF7C0FC03200021A3
:1009D0000B460122CDE900101103A848FFF7B6FC31
:1009E000032000210B460122CDE900105103A3484A
:1009F000FFF7ACFCC5E100250027A84651E0002424
:100A000017E0444501D1012000E0002040B12EA8AC
:100A100000EBC40080882EA951F83410088307E049
:100A20002EA800EBC40080882EA951F8341048830A
:100A3000641C092CE5DB00262FE018A850F83600CE
:100A4000006918A901EBC6018988084008B1012096
:100A500000E00020012810D140A8415D0120B840ED
:100A60000143C8B240A948553346424684A1824852
:100A7000CDE9005700F004FB06E040A8415D0120ED
:100A8000B840814340A841557F1C042F01D1002765
:100A90006D1C012000F076F9761C082ECDDB08F1E4
:100AA0000108B8F1090FAADB002416E00CB90120F7
:100AB00000E0002040B12EA800EBC40080882EA9E1
:100AC00051F83410088307E02EA800EBC40080889A
:100AD0002EA951F834104883641C082CE6DB2A98B0
:100AE0000069BDF8AC10084008B1012000E000200A
:100AF00001280BD19DF8010140F008008DF801019B
:100B00009DF80D0140F001008DF80D01012000F06D
:100B100039F92C980069BDF8B410084008B10120DB
:100B200000E0002001280BD19DF8000140F00400F6
:100B30008DF800019DF80D0140F001008DF80D01C8
:100B4000012000F01FF916980069BDF85C100840FC
:100B500008B1012000E0002030B99DF8130140F0F9
:100B600008008DF8130105E09DF8130120F008003E
:100B70008DF81301012000F005F928980069BDF8EF
:100B8000A410084008B1012000E0002030B99DF811
:100B9000130140F004008DF8130105E09DF81301E6
:100BA00020F004008DF81301012000F0EBF8002480
:100BB00046E002A850F83400006902A901EBC40124
:100BC0008988084008B1012000E0002008BB02A885
:100BD00000EBC400807940A9085C02A901EBC401C4
:100BE000CA7901219140084302A901EBC401897926
:100BF00040AA505402A800EBC400C079009002A89B
:100C000000EBC4008379224628A11B4800F038FA83
:100C100012E002A800EBC400807940A9085C02A998
:100C200001EBC401CA7901219140884302A901EB7B
:100C3000C401897940AA5054012000F0A3F8641C33
:100C40000A2CB6DB002499E04FF480700B491A316E
:100C50000880ECBB01203DE03C150008444D3634D3
:100C6000504943206669726D776172652072756EB6
:100C70006E696E672E0A0000000000200018024016
:100C80004B65793A20636F6C3D25692C20726F7734
:100C90003D25692C206E6962626C653D25692C20BA
:100CA0006269743D25692E0A000000004A6F79735D
:100CB0007469636B3A20693D25692C206E69626214
:100CC0006C653D25692C206269743D25692E0A00FA
:100CD000FFE7002020B14FF400702F49088004E0A6
:100CE0004FF400702C49891C088040A8005D00F07A
:100CF000010080F0010020B14FF480602649088097
:100D000004E04FF480602449891C088040A8005DFD
:100D1000012121EA500018B1C8021F49088004E0EF
:100D20004FF400601C49891C088040A8005D012127
:100D300021EA900018B108031749088004E04FF435
:100D400080501549891C088040A8005D012121EAD6
:100D5000D00018B148031049088004E04FF4005057
:100D60000D49891C0880012000F00CF84FF48070B8
:100D700009490880012000F005F8641C202CFFF6CA
:100D800063AF38E6054A126800FB02F100BF0A1E95
:100D9000A1F10101FBD17047181802401400002096
:100DA000704700BFFEE700BFFEE700BFFEE700BFE1
:100DB000FEE7704770477047704710B5FFF72CFC8F
:100DC00010BD00000CB5002001900090764800682E
:100DD00040F480307449086000BF7348006800F434
:100DE000003000900198401C0190009818B90198BB
:100DF000B0F5A04FF1D16C48006800F4003010B19C
:100E00000120009001E0002000900098012846D1C8
:100E100065484030006840F08050634940310860C8
:100E20006248006840F44040604908605E4808300D
:100E300000685D49083108600846006840F40040D9
:100E400008600846006840F4A05008605848091F30
:100E50000860081F006840F08070091F086000BF2C
:100E60005148006800F000700028F9D040F2057089
:100E7000504908604C480830006820F003004A4997
:100E8000083108600846006840F00200086000BFB2
:100E900045480830006800F00C000828F8D10CBD67
:100EA00010B54548006840F47000434908603E486A
:100EB000006840F001003C49086000203A490831D0
:100EC0000860394800683D490840374908603C4897
:100ED000091D0860081F006820F48020091F0860B1
:100EE000002031490C310860FFF76CFF4FF00060C3
:100EF00031498039086010BD70B5002000220223FE
:100F000000240221284D08352D6805F00C0020B181
:100F1000042806D0082834D107E02A4D2A4E35602F
:100F200033E02A4D284E35602FE01F4D2D1D2D68D2
:100F3000C5F380541C4D2D1D2D6805F03F0154B1A3
:100F4000224DB5FBF1F5184E361D3668C6F38816EE
:100F500005FB06F209E01B4DB5FBF1F5124E361DFF
:100F60003668C6F3881605FB06F20F4D2D1D2D6859
:100F7000C5F301456D1C6B00B2FBF3F5124E3560F5
:100F800003E0104D104E356000BF00BF064D083520
:100F90002D68C5F303150E4E705D0B4D2D68C540D1
:100FA000094E356070BD00000038024000700040FE
:100FB00008544007003C024088ED00E0FFFFF6FEC9
:100FC000103000240024F4001C00002000127A00DD
:100FD0002000002070B5064600F028F9056806F1EB
:100FE0000B0020F00704B4429CBF002070BD2B46CC
:100FF0006A68BAB11068A04210D304F108018842AF
:101000003CBF5068586007D351681019416011689F
:10101000091B016058601460101D70BD13465268B2
:10102000002AE7D12146284600F008F90028DED141
:1010300070BD70B50446051F00F0F8F80068002C7C
:1010400014BF446870BD002C18BFAC423CBF2046A2
:101050006468F8D301680A18AA4218BF456003D132
:101060002A6805461144016028684119A1421CBF45
:101070006C6070BD6168696021680844286070BD5B
:101080000FB4014610B504AA039800F07BF910BC18
:101090005DF814FB2DE9F0410E4604460020206265
:1010A0002046E168884730B3252805D0D4E90121DE
:1010B0009047206A401CF2E7E168204600278847F5
:1010C000050018D0A5F14100192802D820354FF4A9
:1010D00000673246294620462760FFF78FF840B167
:1010E000012804D0F61D26F007060836D8E7361D7D
:1010F000D6E72846DAE7206ABDE8F0812DE9F0411D
:101100000646002410687529314616A510D0AFF3A5
:101110000080002802DA404213A507E031688A0700
:1011200001D512A502E0490704D511A5012401E06B
:10113000AFF3008000210A2206F1240709E0B0FB8A
:10114000F2FCB0FBF2F302FB1C003030785418467E
:10115000491C0028F3D123462A463046BDE8F04119
:1011600000F0B6B8000000002D0000002B000000C9
:101170002000000010B5203AC0F00B80B1E81850F4
:10118000203AA0E81850B1E81850A0E81850BFF471
:10119000F5AF5FEA027C24BFB1E81850A0E8185010
:1011A00044BF18C918C0BDE810405FEA827C24BF64
:1011B00051F8043B40F8043B08BF7047D20728BFF2
:1011C00031F8023B48BF11F8012B28BF20F8023B41
:1011D00048BF00F8012B70474FF0000200B51346DE
:1011E00094469646203922BFA0E80C50A0E80C5047
:1011F000B1F12001BFF4F7AF090728BFA0E80C50F8
:1012000048BF0CC05DF804EB890028BF40F8042BF0
:1012100008BF704748BF20F8022B11F0804F18BF5D
:1012200000F8012B704770477047704700487047BF
:1012300068000020704770477047704738B5044613
:101240000A4600206946AFF30080002808BF38BD79
:1012500002460099204600F0ABF8012038BD01207D
:1012600000F0DCB8F8B5AFF30080054600200C466E
:10127000102000BF0646A819A0420DD93246694683
:101280000020AFF30080070008BF00F0C7F8009807
:10129000A04218BF0546C419FFF7C8FF05600746FE
:1012A000F01D20F007004619284600F00AF8B44265
:1012B00008BFF8BDA21B31463868BDE8F84000F011
:1012C00077B800210160C0E9011070471020704715
:1012D0002DE9F0470D4699469246044600F1240850
:1012E0000168880604D5E06921F01001216000E062
:1012F0000120A84201DD471B00E00027A1697A19FF
:1013000002EB0900081AA0612078C00602D420462A
:10131000AFF30080002608E0D4E901211AF80600A6
:101320009047206A401C761C20624E45F4DB2078F2
:10133000C0060AD52046AFF3008006E0D4E90121BB
:1013400030209047206A401C2062381EA7F1010718
:10135000F4DC07E0D4E9012118F805009047206A81
:10136000401C2062281EA5F10105F3DC2046AFF3E6
:1013700000802078000602D50220BDE8F087012019
:10138000FBE70000074B70B50D467B4400F02FF8DB
:101390000446284600F03EF810B14FF0FF3070BD13
:1013A000204670BDF1F1FFFF00487047600000204B
:1013B000034640688C46002818BF88423CBF03465D
:1013C0004068F8D318681844884207D00CF103002D
:1013D00020F00700001D411A521A0146081D0A603C
:1013E000FFF727BE01694A1C02610878704700B503
:1013F0008FB0CDE901310021059105497944CDE94E
:10140000031011466846FFF745FE0FB000BD00000F
:10141000E5FFFFFF007B00F08000704710B500F093
:1014200039F8BDE8104000F02FB870477546FFF757
:10143000BBFFAE4605006946534620F007008546CF
:1014400018B020B5FEF706FFBDE820404FF00006BB
:101450004FF000074FF000084FF0000B21F007019C
:10146000AC46ACE8C009ACE8C009ACE8C009ACE8DF
:10147000C0098D46704710B50446AFF30080204682
:10148000BDE81040FEF7D2BE002801D000F02AB817
:101490007047000010B5012805D0002103A000F01E
:1014A00027F8012010BD09A1F8E700005349475271
:1014B000544D454D3A204F7574206F662068656124
:1014C00070206D656D6F7279000000003A204865EC
:1014D0006170206D656D6F727920636F72727570C7
:1014E0007465640001491820ABBEFEE726000200C7
:1014F00070B505460C460A2000E06D1C00F011F89E
:1015000035B128780028F8D102E0641C00F009F811
:1015100014B120780028F8D1BDE870400A20AFF35C
:10152000008008B569468DF800000320ABBE08BDF9
:101530004FF04070E1EE100A7047000000100240CA
:1015400000020000001002400004000000100240F1
:1015500000080000001002400010000000100240CF
:101560000020000000100240004000000010024077
:101570000080000000080240010000000008024056
:1015800002000000001002400100000000100240B4
:1015900002000000001002400400000000100240A1
:1015A000080000000010024010000000001002407F
:1015B0002000000000100240400000000010024027
:1015C00080000000001002400001000000080240FE
:1015D000040000000008024008000000000802406B
:1015E0000080000000080240400012020008024093
:1015F00080001203000802401000120000080240A0
:1016000020001201000802400010130000080240F0
:1016100000041402000802400008140300080240FD
:1016200000021400000802400001140100080240FA
:1016300000201500541600080000002030000000B3
:10164000C401000884160008300000209008000043
:10165000E0010008000000000000000000000000A1
:10166000000000000000000000000000000000007A
:10167000007A030A000000000000000001020304D9
:041680000607080948
:040000050800018965
:00000001FF
